:100000000C9463010C9494010C9494010C9494014D
:100010000C9494010C9494010C9494010C9494010C
:100020000C9494010C9494010C9494010C949401FC
:100030000C9494010C9494010C9494010C949401EC
:100040000C9494010C9481080C9494010C949401E8
:100050000C9494010C9494010C9494010C94AD07AD
:100060000C9494010C9494010C9494010C949401BC
:100070000C9494010C9494010C9494010C949401AC
:100080000C9453080C9494010C9494010C949401D6
:100090000C9494010C9494010C9494010C9494018C
:1000A0000C9494010C9494010C9425080C949401E4
:1000B0000C9494010C9494010C9494010C94F70703
:1000C0000C9494010C9494010C9494010C9494015C
:1000D0000C9494010C9494010C9494010C9494014C
:1000E0000C9494010C940A0B0C94860B0C94AA0BA0
:1000F0000C9413030C945E0B0C94800B0C94700BFB
:100100000C94A60B0C9421030C94AC0B0C94DF05FF
:100110000C94B20B0C94A80B0C94340B0C940D03A0
:100120000C94960B0C944D040C94EE020C94EA0281
:100130000C94E6020C94F2020C9417030C94050341
:100140000C94400B0C94E0020C9420030C94950248
:100150000C94F5020C94AE0B0C94840B0C94FF02DF
:100160000C94460B0C94DE050C94B00B0C94A70772
:100170000C941B030C948C0B0C943A0B0C947E0B7C
:100180000C946F0C0C949C0B0C9409030C9483033B
:100190000C94FB020C9425030C94540B0C94520306
:1001A0000C94820B00002100240027002A002D005F
:1001B0003000330001010000040107010A010000C2
:1001C0002200250028002B002E00310034000201FF
:1001D0000000050108010B0100002000230026009B
:1001E00029002C002F00320000010000030106014D
:1001F00009010505050507050808080802020202AD
:100200000A0A0808040404040101010101010101B2
:100210000303030303030303040707070C0C0C0C7D
:100220000C0C0C0C02020202060606060606060666
:100230000B0B0B0B0B0B0B0B0102102020080810F3
:100240002040102040800201020108040201010246
:10025000040810204080804020100804020180041F
:10026000020180402010080402010804020101027A
:100270000408102040800102040810204080000083
:100280000A0B02090C0D0E08070304010000000010
:10029000000000000000000000000000000000005E
:1002A000000000000000000000001211100000001B
:1002B000000000000000000000000000000000003E
:1002C000000000006F0C11241FBECFEFD1E2DEBF93
:1002D000CDBF00E00CBF12E0A0E0B2E0EAE2FBE13B
:1002E00000E00BBF02C007900D92AC3AB107D9F7FE
:1002F00024E0ACEAB2E001C01D92AB30B207E1F7F6
:1003000011E0C3E6D1E000E006C021970109802F8B
:10031000FE010E948B0DC236D10780E00807A9F7C5
:100320000E94AF080C94930D0C9400008F929F9242
:10033000AF92BF92CF92DF92EF92FF928091F20341
:1003400058E5C52E52E0D52EC81AD10887FDD394A2
:10035000CC0CDD1CCC0CDD1C0D2C000CEE08FF08B9
:100360008091F10378E8872E912C881A910887FDF7
:100370009394880C991C880C991C092C000CAA08D1
:10038000BB088091F0038F3FD1F190E0FC01EE0FAC
:10039000FF1FE80FF91FE05AFC4F8181928133E083
:1003A000880F991F3A95E1F7B0E0A0E044E0B595D9
:1003B000A795979587954A95D1F702969C012F5F4F
:1003C0003F4F032E000C440B550B281939094A09DD
:1003D0005B09A4EBB0E00E943B0DA7019601281930
:1003E00039094A095B090E941C0DC901FF90EF9071
:1003F000DF90CF90BF90AF909F908F90089590E046
:1004000080E0DCCF96E0899FD0011124AF50BD4F32
:1004100090967C936E935F9791E091969C939197C1
:10042000E0915E03F0915F0390915D03992339F0B1
:10043000309751F0811108C080910D0319943097C5
:1004400019F05C968C91FACF0895CF92DF92EF92DB
:10045000FF920F931F9396E0899FF0011124EF50B4
:10046000FD4F11A2278D30A12130310551F178F0D7
:100470002230310509F451C02330310509F452C04E
:100480001F910F91FF90EF90DF90CF90089566231A
:10049000B9F361E070E00E9402022FB7F8948091F6
:1004A000ED029091EE02A091EF02B091F0022FBF09
:1004B0008093490390934A03A0934B03B0934C035A
:1004C000DFCF9FB7F894C090ED02D090EE02E0909D
:1004D000EF02F090F0029FBF0091490310914A0390
:1004E00020914B0330914C03C01AD10AE20AF30A5F
:1004F00000915B0310915C0330E020E00C151D05BA
:100500002E053F0550F462E070E01F910F91FF90BF
:10051000EF90DF90CF900C9402026111B1CF63E0B5
:1005200070E0F3CF70E060E0F0CFAF92BF92CF9277
:10053000DF92EF92FF920F931F93CF93DF936C01A3
:100540007B018B01040F151FEB015E01AE18BF0884
:10055000C017D10759F06991D601ED91FC91019036
:10056000F081E02DC6011995892B79F7C501DF913E
:10057000CF911F910F91FF90EF90DF90CF90BF90A0
:10058000AF9008958150823108F05AC0E82FF0E012
:100590008827E253FD4F8F4F0C948B0DEE02F20231
:1005A000E002E602EA022003F502FB02FF02050375
:1005B00009030D031303170320031B032103250362
:1005C000809180008F7780938000089580918000D3
:1005D0008F7DF9CF80918000877FF5CF84B58F77AD
:1005E00084BD089584B58F7DFBCF8091B0008F7757
:1005F0008093B00008958091B0008F7DF9CF8091F5
:1006000090008F77809390000895809190008F7D67
:10061000F9CF80919000877FF5CF8091A0008F77F0
:100620008093A00008958091A0008F7DF9CF8091E4
:10063000A000877FF5CF809120018F7780932001E4
:100640000895809120018F7DF9CF80912001877FCF
:10065000F5CFCF93DF93282F30E0F901E258FD4F1B
:100660008491F901E85CFD4FD491F901EE50FE4F01
:10067000C491CC23A1F081110E94C202EC2FF0E0C2
:10068000EE0FFF1FE852FE4FA591B491EC91ED23C0
:1006900081E090E009F480E0DF91CF91089580E05F
:1006A00090E0FACF862F0C9429031F93CF93DF930A
:1006B000282F30E0F901E258FD4F8491F901E85C00
:1006C000FD4FD491F901EE50FE4FC491CC23A9F017
:1006D000162F81110E94C202EC2FF0E0EE0FFF1FD7
:1006E000E254FE4FA591B4918FB7F894EC9111119B
:1006F00008C0D095DE23DC938FBFDF91CF911F918F
:100700000895DE2BF8CF862F642F0C945503CF93DA
:10071000DF9390E0FC01E85CFD4F24918E509E4FEA
:10072000FC0184918823C9F090E0880F991FFC0197
:10073000EC55FE4FA591B491FC01E254FE4FC591DA
:10074000D49161110DC09FB7F8948C9120958223AC
:100750008C938881282328839FBFDF91CF910895B0
:10076000623051F49FB7F8943C91822F8095832397
:100770008C93E8812E2BEFCF8FB7F894EC912E2B32
:100780002C938FBFEACF1F93CF93DF93EC01162FEB
:100790008881803308F050C061E0812F0E94870378
:1007A0008881282F30E0F901EE0FFF1FE20FF31FC1
:1007B000E05AFC4F1F736081607C612B60839EE870
:1007C000998394E69A832CE0622F0E947F0D829F8A
:1007D000B001112430E020E0AB01420F531FFA01B9
:1007E000EE0FFF1FE40FF51FE05AFC4F908196FDBE
:1007F00016C02F5F3F4F2C30310571F7813009F55E
:100800001092800082E08093810010928500109207
:100810008400B19A80916F00826080936F00E881BC
:100820008E2F90E0FC01EE0FFF1FE80FF91FE05A3A
:10083000FC4F8081806480838881DF91CF911F91FC
:100840000895823061F4109290008093910010928C
:1008500095001092940088BB80937100E0CF8330A4
:1008600069F41092A00082E08093A1001092A5008C
:100870001092A40089BB80937200D1CF8111CFCF99
:100880001092200182E080932101109225011092A4
:1008900024018ABB80937300C2CF862F642F0C94EF
:1008A00087033FB7F8948091B2029091B302A09170
:1008B000B402B091B50226B5A89B05C02F3F19F030
:1008C0000196A11DB11D3FBFBA2FA92F982F8827D0
:1008D000BC01CD01620F711D811D911D42E0660FAB
:1008E000771F881F991F4A95D1F708958F929F927D
:1008F000AF92BF92CF92DF92EF92FF924B015C01D9
:100900000E9451046B017C010E9451046C197D0905
:100910008E099F09683E734081059105A8F321E087
:10092000821A9108A108B10888EEC80E83E0D81E8B
:10093000E11CF11C81149104A104B10429F7FF907A
:10094000EF90DF90CF90BF90AF909F908F900895E1
:10095000CF92DF92EF92FF92CF93DF93EC01603260
:1009600082E07807CCF5653B710514F064EB70E02C
:10097000898128E830E0281B310987FD3395220F53
:10098000331F220F331F6901330FEE08FF088A81DE
:1009900028E532E0281B310987FD3395220F331FEC
:1009A000220F331F032E000C440B550B2C193D094D
:1009B0004E095F09DB0177FF02C0B0E0A0E00E94B2
:1009C000460D24EB30E040E050E00E941C0DC20ECA
:1009D000D31EE41EF51EB601E881E03370F52981CF
:1009E00088E890E0821B910927FD9395880F991F55
:1009F000880F991F681779077CF02A8188E592E0B3
:100A0000821B910927FD9395880F991F880F991FC5
:100A1000681779070CF4CB010297880F991F4FB71D
:100A2000F8942E2F30E0F901EE0FFF1FE20FF31FB5
:100A3000E05AFC4F928381834FBFDF91CF91FF90AB
:100A4000EF90DF90CF900895AF92BF92CF92DF9258
:100A5000EF92FF920F931F93CF93DF936B017A0175
:100A6000EC01C355DD4F28813CE0389F8001399F60
:100A7000100D1124A090AC02B12C27FF1FC0FB0168
:100A80001182108288818F5F888388819801280F66
:100A9000311D87FD3A95F6012A153B051CF4888126
:100AA0008C30C4F180819181049680349C4908F493
:100AB00073C0F60180819181049670C0888198018D
:100AC000280F311D87FD3A952A153B05DCF68881F4
:100AD000A801480F511D87FD5A95FA01EE0FFF1F1F
:100AE000E40FF51FE05AFC4F808186FFCBCF888151
:100AF000F801E80FF11D87FDFA95CF01EE0FFF1FFA
:100B0000E80FF91FE05AFC4F808160E08F730E946C
:100B10005503B8CF808191812881A801420F511DD2
:100B200027FD5A959A01FA01EE0FFF1FE20FF31FFE
:100B3000E05AFC4F21813281820F931FF70191838C
:100B4000808388819801280F311D87FD3A95F9012E
:100B5000EE0FFF1FE20FF31FE05AFC4F808186FF6C
:100B600022C08881080F111D87FD1A95F801EE0F2C
:100B7000FF1FE00FF11FE05AFC4F808161E08F738F
:100B8000DF91CF911F910F91FF90EF90DF90CF9069
:100B9000BF90AF900C94550380E49CE9F7019183DA
:100BA00080838FEF8883DF91CF911F910F91FF900A
:100BB000EF90DF90CF90BF90AF900895089590E0B0
:100BC00080E00895CF93DF930E949601EC01C53B2E
:100BD000D1056CF4BE0180EF93E00E94A8046FE0A1
:100BE00070E080E090E00E9476042596F0CF61E00E
:100BF00080E0DF91CF910C945503CF93DF930E9457
:100C00009601EC01D7FD0DC0BE0180EF93E00E947C
:100C1000A8046FE070E080E090E00E9476042597E1
:100C2000F1CF61E086E10E94550360E087E10E9418
:100C3000550360E088E10E94550361E089E10E946C
:100C4000550361E08AE10E94550364E670E080E0AC
:100C500090E00E94760470E060E086EB92E00E94F3
:100C6000A8046FE070E080E090E00E947604E9EB79
:100C7000F2E085E090E08193919322E0E93EF20773
:100C8000D1F760E080E0DF91CF910C945503FC0137
:100C900001900020E9F73197AF01481B590BBC01C7
:100CA00083EF93E00C949502CF93DF93EC0160E027
:100CB0008E810E94550361E08E810E94550360E0A1
:100CC0008E810E9455038BE891E00197F1F7DF9147
:100CD000CF910895CF92DF92EF92FF920F931F93DF
:100CE000CF93DF936C017C0187E0E80EF11CD0E02C
:100CF000C0E0062F10E0B8010C2E02C07595679574
:100D00000A94E2F76170F70181917F010E94550317
:100D10002196C430D10579F7C601DF91CF911F919B
:100D20000F91FF90EF90DF90CF900C945406CF92EC
:100D3000DF92EF92FF920F931F93CF93DF93EC011B
:100D4000F62E642F8C810E9455038D818F3F19F000
:100D500060E00E9455030F2D10E08F8584FF25C0B1
:100D60006E0187E0C80ED11CF12CE12CB8010E2CCD
:100D700002C0759567950A94E2F76170F60181915A
:100D80006F010E945503FFEFEF1AFF0A88E0E81693
:100D9000F10461F7CE01DF91CF911F910F91FF9088
:100DA000EF90DF90CF900C945406B80184E07595D5
:100DB00067958A95E1F7CE010E946A066F2DCE01F4
:100DC000DF91CF911F910F91FF90EF90DF90CF9027
:100DD0000C946A0640E0682F83EF93E00C9497062A
:100DE00081E00E94EA068BE39FE10197F1F7089505
:100DF000CF93DF93823029F490910204986090930E
:100E00000204809306041092070480E4809308048F
:100E100080E18093090480E580930A0461E0809179
:100E2000F7030E9487038091F8038F3F19F061E078
:100E30000E94870361E08091F9030E948703C3EF5A
:100E4000D3E09E01235F33408091020484FD0BC0F8
:100E500084E090E021962817390744F461E08E8100
:100E60000E948703EECF88E090E0F4CF8BE39DE013
:100E70000197F1F760E08091F7030E94550360E06D
:100E80008091F9030E9455038091F8038F3F19F078
:100E900060E00E9455038091020484FD34C063E049
:100EA00083EF93E00E946A06CBE4D6E4CE0101977B
:100EB000F1F763E083EF93E00E946A062197F1F770
:100EC00063E083EF93E00E946A0683E592E0019776
:100ED000F1F762E083EF93E00E946A0680910204DA
:100EE00080620E94EA0684E0809303048CE00E9402
:100EF000EA060E94F00682E08093040486E0DF9117
:100F0000CF910C94EA0680620E94EA068BE496E494
:100F10000197F1F78091020480620E94EA0683E55E
:100F200092E00197F1F78091020480620E94EA0644
:100F3000D5CFE0910604E23040F4E150F0E0ED500E
:100F4000FC4F848980680C94EA06E1E0F7CF41E029
:100F50000E94970681E090E008951F920F920FB6CD
:100F60000F9211242F933F938F939F93AF93BF932F
:100F70008091ED029091EE02A091EF02B091F0020B
:100F80003091B10223E0230F2D3758F50196A11DB2
:100F9000B11D2093B1028093ED029093EE02A093D5
:100FA000EF02B093F0028091B2029091B302A0914F
:100FB000B402B091B5020196A11DB11D8093B20299
:100FC0009093B302A093B402B093B502BF91AF91D6
:100FD0009F918F913F912F910F900FBE0F901F9077
:100FE000189526E8230F0296A11DB11DD2CF1F929E
:100FF0000F920FB60F9211240BB60F922F933F93BF
:101000004F935F936F937F938F939F93AF93BF9310
:10101000EF93FF9348E251E064E271E090E080E0FA
:101020000E942405FF91EF91BF91AF919F918F9105
:101030007F916F915F914F913F912F910F900BBED8
:101040000F900FBE0F901F9018951F920F920FB622
:101050000F9211240BB60F922F933F934F935F93F0
:101060006F937F938F939F93AF93BF93EF93FF9370
:1010700048EA50E064EA70E083E090E00E942405D2
:10108000FF91EF91BF91AF919F918F917F916F9160
:101090005F914F913F912F910F900BBE0F900FBE1C
:1010A0000F901F9018951F920F920FB60F92112458
:1010B0000BB60F922F933F934F935F936F937F9352
:1010C0008F939F93AF93BF93EF93FF9348E950E0C3
:1010D00064E970E082E090E00E942405FF91EF91C6
:1010E000BF91AF919F918F917F916F915F914F9140
:1010F0003F912F910F900BBE0F900FBE0F901F903E
:1011000018951F920F920FB60F9211240BB60F92E3
:101110002F933F934F935F936F937F938F939F93FF
:10112000AF93BF93EF93FF9348E850E064E870E01B
:1011300081E090E00E942405FF91EF91BF91AF9173
:101140009F918F917F916F915F914F913F912F91DF
:101150000F900BBE0F900FBE0F901F9018957894B4
:1011600084B5826084BD84B5816084BD85B58260AC
:1011700085BD85B5816085BD80916E00816080935D
:101180006E001092810080918100826080938100C6
:1011900080918100816080938100809180008160D6
:1011A000809380008091B10084608093B100809131
:1011B000B00081608093B000809191008260809344
:1011C00091008091910081608093910080919000C6
:1011D0008160809390008091A10082608093A10043
:1011E0008091A10081608093A1008091A000816026
:1011F0008093A000809121018260809321018091E1
:101200002101816080932101809120018160809380
:10121000200180917A00846080937A0080917A0026
:10122000826080937A0080917A00816080937A0056
:1012300080917A00806880937A001092C10061E00A
:1012400080E00E94870361E086E10E94870361E0FD
:1012500087E10E94870361E088E10E94870361E0E3
:1012600089E10E94870361E08AE10E94870382E0AE
:101270000E94F80663E070E086EB92E00E94C303F0
:1012800062E070E080EF93E00E94C3030E94F006EA
:101290000E94FD0568EE73E080E090E00E94760415
:1012A0000E94E205412C512C3201439488248A94F7
:1012B000982C0FEF1FEF21E020935D038FB7F89478
:1012C0004091ED025091EE026091EF027091F002B8
:1012D0008FBF80914D0390914E03A0914F03B09129
:1012E0005003481B590B6A0B7B0B8091590390915B
:1012F0005A03B0E0A0E084179507A607B70708F0E7
:1013000016C1C0E080915703C81760F4E091530301
:10131000F0915403EC0FF11D62E080810E9487037D
:10132000CF5FF0CF312C80915803381608F05FC0A2
:10133000E32CF12CE0915503F0915603EE0DFF1DC7
:1013400061E080810E948703E0915503F09156038C
:10135000EE0DFF1D60E080810E945503D301C201A4
:10136000032C04C0880F991FAA1FBB1F0A94D2F731
:101370005C016C01C094D094212C809157032816F5
:10138000F8F4C22DD0E0E0915303F0915403EC0F38
:10139000FD1F80810E9429032496CC0FDD1FCF50B2
:1013A000DD4F892B41F4888199818A299B29998372
:1013B00088832394E2CF888199818C219D21F7CF66
:1013C000E0915503F0915603EE0DFF1D61E0808121
:1013D0000E9455038091550390915603E80EF91E23
:1013E00060E0F70180810E94870333949CCFC1EFB6
:1013F000D2E07E01F701878D90A1892B21F4148E14
:10140000968E858E11A2F6E0EF0EF11C2DE2E2160B
:1014100023E0F20679F7B12C80915703B81608F053
:1014200053C0A12CCB2CD12CCC0CDD1CC601875079
:101430009D4F6C0120915803A21608F043C0F6019D
:10144000608171810A2C02C0769567950A94E2F753
:10145000B29E900111242A0D311DE1EFF2E080E0EF
:10146000458D568D2417350709F432C28F5F3696A5
:101470008A30B1F760FF24C0E1EFF2E090E080E055
:10148000448D411118C0E0915103F0915203E20FD5
:10149000F31F408156E0589FF001599FF00D112431
:1014A000EF50FD4F448F368F258F10A2178E61E0CD
:1014B0000E94250205C0019636968A30910501F7F3
:1014C000A394B8CFB394A8CF80E099A19111892FAC
:1014D0002696EC16FD06C9F79FB7F8944091ED02E9
:1014E0005091EE026091EF027091F0029FBF409325
:1014F0004D0350934E0360934F0370935003882322
:10150000B1F080911203882391F0809110039091A3
:101510001103019761F4F0900D03F1100BC080E00E
:1015200090E0892B09F4C7CE0E940000C4CE10922F
:101530005D03F5CF80ED8F0D8A3018F58091EB02B9
:101540009091EC02892B59F7C091E902D091EA02FF
:10155000C730D10524F76F2D83EF93E00E94A707D2
:10156000FE01EE0FFF1FED5EFD4F8F2DFF0C990B5F
:10157000C097918380832196D093EA02C093E902B9
:10158000CECF8AE2F81266C18091EB029091EC0214
:10159000892B29F68091E9029091EA028230910527
:1015A00009F032C180911302909114022AE0289F21
:1015B000F001299FF00D11248091150290911602DF
:1015C000E80FF91FEF012197C831D10508F0FBC0E2
:1015D0003297E731F10508F0C7C08827ED50F54F85
:1015E0008F4F0C948B0DB20BB00BAE0BAC0BAA0B48
:1015F000A80BA60B9C0B960B8C0B860B840B820BFB
:10160000800B7E0B700B5E0B540B460B400B3A0BA2
:10161000340B0A0B60E086E10E94550360E087E12D
:101620000E94550360E088E10E94550361E089E172
:101630000E94550361E08AE10E9455036FE070E06B
:1016400080E090E00E947604CC0FDD1FC754DD4F90
:1016500088819981892B09F08DC00E94990785E4C2
:1016600092E00E944706A7C060E086E10E94550311
:1016700061E01FC060E086E10E94550360E051C058
:1016800060E086E10E94550361E02FC061E086E1E1
:101690000E94550361E087E10E94550361E088E103
:1016A0000E94550360E0C3CF61E086E10E945503CC
:1016B00060E087E10E94550360E0F1CF61E086E1E0
:1016C0000E94550361E087E10E94550360E088E1D4
:1016D0000E94550361E089E10E94550360E0ABCFB1
:1016E00061E086E10E94550360E087E10E945503B6
:1016F00061E088E10E94550360E0EDCF60E0C7CF74
:1017000060E0D3CF60E0DBCF60E0EBCF61E086E16B
:101710000E94550360E0BFCF61E086E10E9455035F
:1017200061E087E10E94550361E0D1CF61E086E18D
:101730000E94550360E0C7CF61E086E10E94550337
:1017400061E087E10E94550360E0D3CF60E0DFCF26
:1017500060E0E3CF60E0EBCF60E0EFCF61E085CF0A
:1017600061E089CF61E08DCF61E086E10E945503A1
:1017700060E0E7CF0E94990786E592E00E94470665
:10178000E880F98086E090E08E199F0954E2589F26
:10179000B001599F700D112486EB92E00E94A804BD
:1017A0006FE070E080E090E00E94760481E0E81A4B
:1017B000F108F982E88260E273E080E090E00E9444
:1017C00076040E94F0061092EA021092E902109349
:1017D0001402009313021093160200931502109343
:1017E00018020093170210931A0200931902109323
:1017F0001C0200931B0210931E0200931D02109303
:10180000200200931F028BCE0797F9F4E3E1F2E088
:10181000A7E3B2E0219131918D919D91281739076D
:1018200009F058C092E0E132F907A1F70E94990748
:1018300089E892E00E9447060E94FD05E1E0F0E0A1
:10184000F093EC02E093EB02B6CF0E94990787E693
:1018500092E007CFE3E2FE1262CE109314020093EF
:1018600013021093160200931502109318020093AE
:10187000170210931A020093190210931C0200938E
:101880001B0210931E0200931D021093200200936E
:101890001F028091EB029091EC02019791F40E945B
:1018A000990788E792E00E9447060E94E20510929D
:1018B000EC021092EB0260E273E080E090E00E94A4
:1018C00076040E94F0061092EA021092E90227CEF6
:1018D0006170EECD0E9499078AE992E0C2CECF9363
:1018E0001092F3021092F7021092F6021092F80290
:1018F00081E392E09093F2028093F102EDE0F3E055
:101900001082148213821582369683E0E934F80738
:10191000B9F783E092E0909354038093530380E0FF
:1019200092E0909356038093550384E0809357038D
:1019300083E08093580387E092E090935203809372
:1019400051038AE090E090935A038093590384EF07
:1019500091E090935C0380935B0310925F0310927D
:101960005E0310924D0310924E0310924F0310929B
:10197000500310925D031092F6031092F50385E276
:1019800092E09093F4038093F3038DE08093F70348
:10199000CFEFC093F8038CE08093F90388E0809345
:1019A000FA0389E08093FB038AE08093FC038BE0D9
:1019B0008093FD031092FE031092FF031092000427
:1019C000109201041092020481E00E94F8068091B6
:1019D000AC02803350F591E0980F9093AC02809365
:1019E000F00390E0FC01EE0FFF1FE80FF91FE05A33
:1019F000FC4F88EB9BE0928381838091AC02803323
:101A0000B8F491E0980F9093AC028093B60290E006
:101A1000FC01EE0FFF1FE80FF91FE05AFC4F88EBA7
:101A20009BE092838183CF910895C093F003E5CF2B
:101A30008FEF8093B602F7CF052E97FB1EF400942C
:101A40000E94330D57FD07D00E944E0D07FC03D0B6
:101A50004EF40C94330D50954095309521953F4FA1
:101A60004F4F5F4F089590958095709561957F4F8A
:101A70008F4F9F4F08950E94700DA59F900DB49FAA
:101A8000900DA49F800D911D11240895B7FF0C9413
:101A90003B0D0E943B0D821B930B0895A1E21A2E71
:101AA000AA1BBB1BFD010DC0AA1FBB1FEE1FFF1F02
:101AB000A217B307E407F50720F0A21BB30BE40B52
:101AC000F50B661F771F881F991F1A9469F7609599
:101AD0007095809590959B01AC01BD01CF01089553
:101AE000A29FB001B39FC001A39F700D811D11245F
:101AF000911DB29F700D811D1124911D0895991B98
:101B000079E004C0991F961708F0961B881F7A95F4
:101B1000C9F780950895EE0FFF1F881F8BBF0790B0
:0A1B2000F691E02D1994F894FFCF20
:101B2A002224262E3032343132333435363738399E
:101B3A002A3023FFFFFFFFFFFFFFFFFFFFFFFFFF2B
:101B4A00FF00000000A7079502DF05DE0500000080
:101B5A00004D048303520301000200030004000540
:101B6A000006000700202020534F4C44204F5554B4
:101B7A00212120202000202020202020444F4E45D3
:101B8A00202020202020002057524F4E4720204955
:101B9A004E505554212120002020202020434C4F14
:101BAA0053454420202020200020202020204F5070
:101BBA00454E454420202020200057524F4E4720B2
:0C1BCA0050415353574F5244212100005A
:00000001FF
