:100000000C9456010C9487010C9487010C94870181
:100010000C9487010C9487010C9487010C94870140
:100020000C9487010C9487010C9487010C94870130
:100030000C9487010C9436060C9487010C9487016C
:100040000C9487010C9489060C9487010C94870109
:100050000C9487010C94E8060C9487010C948C0591
:100060000C9487010C9400060C94D6050C9487011F
:100070000C9487010C9487010C9487010C948701E0
:100080000C9487010C9487010C9487010C948701D0
:100090000C9487010C9487010C9487010C948701C0
:1000A0000C9487010C9487010C9487010C948701B0
:1000B0000C9487010C9487010C9487010C948701A0
:1000C0000C9487010C9487010C9487010C94870190
:1000D0000C9487010C9487010C9487010C94870180
:1000E0000C9487010C9478090C9492040C944C099C
:1000F0000C948A040C9413090C949F040C946D03C3
:100100000C94C5040C94BF040C944B030C9442094A
:100110000C9473040C940C090C948E040C94A3049A
:100120000C9453090C9438090C949C090C941D09E7
:100130000C9433090C9478040C9452080C94C90460
:100140000C94A5030C9499040C942C090C948A0922
:100150000C943C030C94B7040C9447090C94B10420
:100160000C9458090C940F030C945F030C9427090A
:100170000C9462090C9422090C9456080C943D09C5
:100180000C9496040C94AD040C94A9040C940709E7
:100190000C9418090C94BB040C94F2030C945D09A4
:1001A00002010000000A0B02090C0D0E08070304EF
:1001B000010000000000000000000000000000003E
:1001C000000000000000000000000000000000121D
:1001D00011100000000000000000000000000000FE
:1001E00000000000000000000000002200250028A0
:1001F000002B002E00310034000201000005010830
:10020000010B0100002100240027002A002D0030EE
:1002100000330001010000040107010A0105050582
:1002200005070508080808020202020A0A0808046D
:10023000040404010101010101010103030303039B
:10024000030303040707070C0C0C0C0C0C0C0C022A
:1002500002020206060606060606060B0B0B0B0B31
:100260000B0B0B010210202008081020401020402A
:10027000800201020108040201010204081020406A
:100280008080402010080402018004020180402088
:1002900010080402010804020101020408102040B1
:1002A000800102040810204080009C0911241FBE18
:1002B000CFEFD1E2DEBFCDBF00E00CBF12E0A0E087
:1002C000B2E0EAE8F6E100E00BBF02C007900D9251
:1002D000AA33B107D9F723E0AAE3B2E001C01D9227
:1002E000A530B207E1F711E0C6E5D1E000E006C0B5
:1002F00021970109802FFE010E94190BC535D107F6
:1003000080E00807A9F70E9447070C94430B0C9460
:10031000000090E0FC01ED59FD4F2491835E9D4F5C
:10032000FC018491882399F090E0880F991FFC01CB
:10033000ED5FFD4FA591B491FC01E751FE4F859112
:1003400094918FB7F894EC91E22BEC938FBF0895C2
:100350008F929F92AF92BF92CF92DF92EF92FF92D5
:100360001F93CF93DF93EC016B0188810E94890179
:100370001981F12CE12C812F8D7F09F0FEC060E006
:1003800072E18AE790E0A70196010E94FA0A49010A
:100390005A01DA01C9010197A109B1098F3F9105FD
:1003A000A105B10509F00CF4B8C060E472E48FE077
:1003B00090E0A70196010E94FA0A215031094109F3
:1003C0005109123009F06AC082E02F3F3105410522
:1003D000510509F00CF45BC060E970ED83E090E03A
:1003E000A70196010E94FA0A2150310941095109D9
:1003F00083E02F3F31054105510509F00CF447C05A
:1004000068E478EE81E090E0A70196010E94FA0A84
:10041000215031094109510984E02F3F310541053F
:100420005105A9F1A4F164E274EF80E090E0A70126
:1004300096010E94FA0A215031094109510985E0CB
:100440002F3F31054105510511F108F162E17AE7CD
:1004500080E090E0A70196010E94FA0A215031093C
:100460004109510986E02F3F31054105510579F0D9
:1004700070F08AE0B594A794979487948A95D1F701
:10048000A5019401215031094109510987E090915A
:10049000B100987F892B8093B10047C02F3F310571
:1004A0004105510509F00CF466C068E478EE81E07E
:1004B00090E0A70196010E94FA0A215031094109F2
:1004C000510984E01111BCCF83E02F3F3105410574
:1004D000510539F134F162E17AE780E090E0A7015B
:1004E00096010E94FA0A215031094109510984E01C
:1004F0002F3F310541055105A1F098F09AE0B594E0
:10050000A794979487949A95D1F7A50194012150C7
:1005100031094109510985E004C09C0181E01111B4
:10052000B6CF95B5987F892B85BD8981813009F437
:100530004EC0823009F460C0811111C027BD8FEF19
:100540009FEFDC018093010390930203A0930303C8
:10055000B093040380916E00826080936E00DF91FF
:10056000CF911F91FF90EF90DF90CF90BF90AF9011
:100570009F908F90089582E0D2CF60E072E18AE789
:1005800090E0A70196010E94FA0A21503109410921
:10059000510991E02115310581E0480751056CF0C2
:1005A00068E478EE81E090E0A70196010E94FA0AE3
:1005B000215031094109510993E0113009F0B5CFBB
:1005C00080918100887F892B80938100AECF30930A
:1005D0008900209388008FEF9FEFDC018093FD025C
:1005E0009093FE02A093FF02B093000380916F00EE
:1005F000826080936F00B3CF2093B3008FEF9FEFA3
:10060000DC018093F9029093FA02A093FB02B0936D
:10061000FC0280917000826080937000A0CFAF9246
:10062000BF92CF92DF92EF92FF920F931F93CF93DF
:10063000DF936C017B018B01040F151FEB015E0141
:10064000AE18BF08C017D10759F06991D601ED91D6
:10065000FC910190F081E02DC6011995892B79F765
:10066000C501DF91CF911F910F91FF90EF90DF9027
:10067000CF90BF90AF900895FC01538D448D252FEE
:1006800030E0842F90E0821B930B541710F0CF962C
:10069000089501970895FC01918D828D981761F05E
:1006A000A28DAE0FBF2FB11D5D968C91928D9F5F75
:1006B0009F73928F90E008958FEF9FEF0895FC0154
:1006C000918D828D981731F0828DE80FF11D858D07
:1006D00090E008958FEF9FEF0895FC01918D228D9A
:1006E000892F90E0805C9F4F821B91098F7399271F
:1006F000089583E592E00E946D0321E0892B09F4BF
:1007000020E0822F0895FC01A48DA80FB92FB11D00
:10071000A35ABF4F2C91848D90E001968F73992737
:10072000848FA689B7892C93A089B1898C91837015
:1007300080648C93938D848D981306C00288F3890E
:10074000E02D80818F7D80830895EF92FF920F933B
:100750001F93CF93DF93EC0181E0888F9B8D8C8D6D
:1007600098131AC0E889F989808185FF15C09FB761
:10077000F894EE89FF896083E889F9898081837024
:10078000806480839FBF81E090E0DF91CF911F91D3
:100790000F91FF90EF900895F62E0B8D10E00F5FF4
:1007A0001F4F0F731127E02E8C8D8E110CC00FB6CA
:1007B00007FCFACFE889F989808185FFF5CFCE0162
:1007C0000E948303F1CFEB8DEC0FFD2FF11DE35A57
:1007D000FF4FF0829FB7F8940B8FEA89FB898081E5
:1007E0008062CFCFCF93DF93EC01888D8823B9F05F
:1007F000AA89BB89E889F9898C9185FD03C080812C
:1008000086FD0DC00FB607FCF7CF8C9185FFF2CFA8
:10081000808185FFEDCFCE010E948303E9CFDF9178
:10082000CF91089580E090E0892B29F00E94790310
:1008300081110E94000080E090E0892B49F080E067
:1008400090E0892B29F00E94000081110E94000095
:1008500080E090E0892B49F080E090E0892B29F03E
:100860000E94000081110E94000080E090E0892B2E
:1008700049F080E090E0892B29F00E94000081116E
:100880000C9400000895282F30E0F901ED55FE4F3B
:100890009491F901ED59FD4F4491235E3D4FF901CB
:1008A0002491222309F435C0992311F191509231FA
:1008B000F8F4E92FF0E08827EF59FB4F8F4F0C94A5
:1008C000190B9204960473048A048E047804990424
:1008D0009F04A304A904AD04B104B704BB047804C5
:1008E000BF04C504C904809180008F778093800085
:1008F000E22FF0E0EE0FFF1FE751FE4FA591B491FC
:100900008FB7F894EC91611148C040954E234C93F9
:100910008FBF0895809180008F7DE8CF8091800007
:10092000877FE4CF84B58F7784BDE2CF84B58F7D98
:10093000FBCF8091B0008F778093B000D9CF8091AA
:10094000B0008F7DF9CF809190008F7780939000D9
:10095000CFCF809190008F7DF9CF80919000877FDD
:10096000F5CF8091A0008F778093A000C1CF8091B8
:10097000A0008F7DF9CF8091A000877FF5CF809177
:1009800020018F7780932001B3CF809120018F7D4C
:10099000F9CF80912001877FF5CF4E2BB8CF909172
:1009A0007B00977F90937B008653806480937C00CC
:1009B00080917A00806480937A0080917A0086FD2D
:1009C000FCCF80917800909179000895FC0191818D
:1009D000913069F0923089F0911105C090916E00CC
:1009E0009D7F90936E0060E080810C944304909111
:1009F0006F009D7F90936F00F6CF909170009D7F68
:100A000090937000F0CFDC0180914302833008F0B6
:100A10007FC06C93E82FF0E0E056FE4FE491119612
:100A2000EC9311978F5F80934302E13029F120F01E
:100A3000E23009F447C0089514BC15BC84B5826047
:100A400084BD85B5816085BD8C9190E0FC01E35E3D
:100A5000FD4FE491F0E0EE0FFF1FE751FE4F2591AF
:100A600034913093420220934102FC01ED59FD4F35
:100A7000E491E0934002089510928000109281006A
:100A800080918100886080938100809181008160E5
:100A9000809381008C9190E0FC01E35EFD4FE49136
:100AA000F0E0EE0FFF1FE751FE4F25913491309398
:100AB0003F0220933E02FC01ED59FD4FE491E0938B
:100AC0003D0208951092B0001092B1008091B000E4
:100AD00082608093B0008091B10081608093B1000A
:100AE0008C9190E0FC01E35EFD4FE491F0E0EE0FAD
:100AF000FF1FE751FE4F2591349130933C02209324
:100B00003B02FC01ED59FD4FE491E0933A02089558
:100B10008FEF11968C9308951F920F920FB60F923C
:100B200011242F933F938F939F93AF93BF93809103
:100B3000F5029091F602A091F702B091F80230917F
:100B4000F40223E0230F2D3758F50196A11DB11DA6
:100B50002093F4028093F5029093F602A093F7029B
:100B6000B093F8028091F0029091F102A091F2020C
:100B7000B091F3020196A11DB11D8093F0029093F4
:100B8000F102A093F202B093F302BF91AF919F9153
:100B90008F913F912F910F900FBE0F901F9018953E
:100BA00026E8230F0296A11DB11DD2CF1F920F92EE
:100BB0000FB60F9211240BB60F922F933F934F93C2
:100BC0005F936F937F938F939F93AF93BF93EF93B5
:100BD000FF9383E592E00E948303FF91EF91BF9121
:100BE000AF919F918F917F916F915F914F913F91C5
:100BF0002F910F900BBE0F900FBE0F901F90189566
:100C00001F920F920FB60F9211240BB60F922F93D3
:100C10008F939F93EF93FF93E0916302F0916402AF
:100C20008081E0916902F0916A0282FD1DC090818D
:100C300080916C028F5F8F7320916D02821741F05B
:100C4000E0916C02F0E0ED5AFD4F958F80936C02BD
:100C5000FF91EF919F918F912F910F900BBE0F906D
:100C60000FBE0F901F9018958081F2CF1F920F92A8
:100C70000FB60F9211240BB60F922F933F938F93C1
:100C80009F93AF93BF93EF93FF938091F90290915D
:100C9000FA02A091FB02B091FC020097A105B105F8
:100CA00041F130913A02E0913B02F0913C02208107
:100CB00023272083181619061A061B061CF4019711
:100CC000A109B1098093F9029093FA02A093FB0263
:100CD000B093FC02FF91EF91BF91AF919F918F91E3
:100CE0003F912F910F900BBE0F900FBE0F901F9052
:100CF0001895209170002D7F2093700020913A026A
:100D0000E0913B02F0913C02308120952323208327
:100D1000D9CF1F920F920FB60F9211240BB60F92DC
:100D20008F939F93AF93BF93EF93FF938091FD02B7
:100D30009091FE02A091FF02B0910003892B8A2BB3
:100D40008B2BB1F190913D02E0913E02F0913F0278
:100D50008081892780838091FD029091FE02A0917D
:100D6000FF02B0910003181619061A061B069CF420
:100D70008091FD029091FE02A091FF02B0910003CC
:100D80000197A109B1098093FD029093FE02A093FF
:100D9000FF02B0930003FF91EF91BF91AF919F913C
:100DA0008F910F900BBE0F900FBE0F901F90189554
:100DB00080916F008D7F80936F0080913D02E09164
:100DC0003E02F0913F029081809589238083E3CF9A
:100DD0001F920F920FB60F9211240BB60F928F93A2
:100DE0009F93AF93BF93EF93FF93809101039091F3
:100DF0000203A0910303B0910403892B8A2B8B2B50
:100E0000B1F190914002E0914102F0914202808163
:100E1000892780838091010390910203A0910303AD
:100E2000B0910403181619061A061B069CF480914B
:100E3000010390910203A0910303B0910403019771
:100E4000A109B1098093010390930203A0930303C6
:100E5000B0930403FF91EF91BF91AF919F918F9158
:100E60000F900BBE0F900FBE0F901F9018958091A2
:100E70006E008D7F80936E0080914002E091410270
:100E8000F09142029081809589238083E3CF78940A
:100E900084B5826084BD84B5816084BD85B582607F
:100EA00085BD85B5816085BD80916E008160809330
:100EB0006E00109281008091810082608093810099
:100EC00080918100816080938100809180008160A9
:100ED000809380008091B10084608093B100809104
:100EE000B00081608093B000809191008260809317
:100EF0009100809191008160809391008091900099
:100F00008160809390008091A10082608093A10015
:100F10008091A10081608093A1008091A0008160F8
:100F20008093A000809121018260809321018091B3
:100F30002101816080932101809120018160809353
:100F4000200180917A00846080937A0080917A00F9
:100F5000826080937A0080917A00816080937A0029
:100F600080917A00806880937A001092C100E091AD
:100F70006302F091640282E08083E0915F02F0916D
:100F800060021082E0916102F09162028FEC808336
:100F900010926B02E0916702F091680286E0808314
:100FA000E0916502F0916602808180618083E0912A
:100FB0006502F0916602808188608083E09165021D
:100FC000F0916602808180688083E0916502F091F3
:100FD000660280818F7D808385E00E94890184E0A4
:100FE0000E94890183E00E94890168E084E492E024
:100FF0000E94030569E086E492E00E9403056AE02E
:1010000088E492E00E940305D1E005E010E064E08E
:10101000E62EF12C73E0C72ED12CAA24A394B12C78
:1010200083E592E00E946D03181619060CF0ECC0DF
:1010300083E592E00E944B03C82F682F83E592E07E
:101040000E94A50342E050E066E372E083E592E08F
:101050000E940F03EFE9EC0FEA3108F027C00E2ED3
:10106000000CFF0B8827E85CF74F8F4F0C94190B8F
:10107000220918090C092C094C09330938093D09C2
:10108000560856087809560862091D098A09560843
:10109000420953092709580956081309470907093E
:1010A0005D095208109252021092510280914C0236
:1010B0008823B1F188E30E94CF044C01809149025A
:1010C00087FD2EC0E0915102F0915202EE0FFF1FFA
:1010D000E65DFD4F60817181660F771F660F771F98
:1010E000072E000C880B990B0E94010A2B013C0172
:1010F000B401990C880B990B0E94010A20E030E0A2
:1011000040E05BE30E94650A9B01AC01C301B201B0
:101110000E94650A0E94C90988E492E00E94A80121
:1011200080914B028823B1F187E30E94CF044C01E8
:101130008091470287FD2EC0E0914F02F09150024E
:10114000EE0FFF1FE25EFD4F60817181660F771F1A
:10115000660F771F072E000C880B990B0E94010A5F
:101160002B013C01B401990C880B990B0E94010AD8
:1011700020E030E040E05BE30E94650A9B01AC01A7
:10118000C301B2010E94650A0E94C90986E492E087
:101190000E94A80180914A028823B1F186E30E944F
:1011A000CF044C018091450287FD2EC0E0914D0295
:1011B000F0914E02EE0FFF1FEE5EFD4F60817181D8
:1011C000660F771F660F771F072E000C880B990B91
:1011D0000E94010A2B013C01B401990C880B990B68
:1011E0000E94010A20E030E040E05BE30E94650AD3
:1011F0009B01AC01C301B2010E94650A0E94C909AA
:1012000084E492E00E94A8010E94120409CFB092E7
:101210005202A09251024ACF82E090E09093520293
:101220008093510243CFD0925202C09251023ECFDE
:10123000F0925202E092510239CF10935202009381
:10124000510234CF1092500210924F022FCFB09221
:101250005002A0924F022ACF82E090E09093500279
:1012600080934F0223CFD0925002C0924F021ECFE4
:10127000F0925002E0924F0219CF10935002009367
:101280004F0214CF10924E0210924D020FCFB09227
:101290004E02A0924D020ACF82E090E090934E025F
:1012A00080934D0203CFD0924E02C0924D02FECEEB
:1012B000F0924E02E0924D02F9CE10934E0200934E
:1012C0004D02F4CE80914C02882359F010924C02CA
:1012D00060E085E00E94430488E492E00E94E60416
:1012E000E5CED0934C0261E085E00E944304DECE5F
:1012F00080914B02882349F010924B0260E084E019
:101300000E94430486E492E0E9CFD0934B0261E06F
:1013100084E0EBCF80914A02882349F010924A0280
:1013200060E083E00E94430484E492E0D7CFD0934E
:101330004A0261E083E0D9CFE3E5F2E01382128252
:1013400088EE93E0A0E0B0E084839583A683B78322
:1013500084E092E09183808385EC90E09587848798
:1013600084EC90E09787868780EC90E0918B808B6F
:1013700081EC90E0938B828B82EC90E0958B848B58
:1013800086EC90E0978B868B118E128E138E148EC6
:1013900008950E94D0096894B1110C945F0A0895D1
:1013A0000E94440A88F09F5798F0B92F9927B751A7
:1013B000B0F0E1F0660F771F881F991F1AF0BA95F9
:1013C000C9F714C0B13091F00E945E0AB1E00895EF
:1013D0000C945E0A672F782F8827B85F39F0B93FE1
:1013E000CCF3869577956795B395D9F73EF49095AC
:1013F0008095709561957F4F8F4F9F4F0895E8942A
:1014000009C097FB3EF490958095709561957F4F4C
:101410008F4F9F4F9923A9F0F92F96E9BB279395FA
:10142000F695879577956795B795F111F8CFFAF40A
:10143000BB0F11F460FF1BC06F5F7F4F8F4F9F4F3B
:1014400016C0882311F096E911C0772321F09EE899
:10145000872F762F05C0662371F096E8862F70E0FF
:1014600060E02AF09A95660F771F881FDAF7880FD9
:101470009695879597F9089557FD9058440F551FF5
:1014800059F05F3F71F04795880F97FB991F61F006
:101490009F3F79F087950895121613061406551F7D
:1014A000F2CF4695F1DF08C0161617061806991FE9
:1014B000F1CF86957105610508940895E894BB27DE
:1014C00066277727CB0197F908950E94780A0C9434
:1014D000E90A0E94DB0A38F00E94E20A20F0952314
:1014E00011F00C94D20A0C94D80A11240C945F0ABF
:1014F0000E943C0A70F3959FC1F3950F50E0551F71
:10150000629FF001729FBB27F00DB11D639FAA2758
:10151000F00DB11DAA1F649F6627B00DA11D661FA7
:10152000829F2227B00DA11D621F739FB00DA11DC8
:10153000621F839FA00D611D221F749F3327A00D82
:10154000611D231F849F600D211D822F762F6A2F1E
:1015500011249F5750409AF0F1F088234AF0EE0F83
:10156000FF1FBB1F661F771F881F91505040A9F7B0
:101570009E3F510580F00C94D20A0C945F0A5F3FA5
:10158000E4F3983ED4F3869577956795B795F795EC
:10159000E7959F5FC1F7FE2B880F911D9695879564
:1015A00097F9089597F99F6780E870E060E00895E3
:1015B0009FEF80EC089500240A941616170618066B
:1015C0000906089500240A94121613061406050647
:1015D0000895092E0394000C11F4882352F0BB0FD8
:1015E00040F4BF2B11F460FF04C06F5F7F4F8F4F3B
:1015F0009F4F0895052E97FB1EF400940E94110B37
:1016000057FD07D00E94210B07FC03D04EF40C9429
:10161000110B50954095309521953F4F4F4F5F4F9F
:10162000089590958095709561957F4F8F4F9F4F4E
:101630000895EE0FFF1F881F8BBF0790F691E02DD6
:101640001994A1E21A2EAA1BBB1BFD010DC0AA1FF3
:10165000BB1FEE1FFF1FA217B307E407F50720F01B
:10166000A21BB30BE40BF50B661F771F881F991F96
:101670001A9469F760957095809590959B01AC01DF
:0A168000BD01CF010895F894FFCFDB
:10168A0000000000A5030F033C03F2036D034B03A4
:10169A005F03C400D000B801D201EE010601930035
:1016AA009C00A500AF00B900C40062006800DC001D
:0A16BA00E900F70083000D0A0000AC
:00000001FF
