:100000000C942E010C945F010C945F010C945F0121
:100010000C945F010C945F010C945F010C945F01E0
:100020000C945F010C945F010C945F010C945F01D0
:100030000C945F010C945F010C945F010C945F01C0
:100040000C945F010C945F010C945F010C945F01B0
:100050000C945F010C945F010C945F010C940605F5
:100060000C945F010C94D0040C94A6040C945F01D2
:100070000C945F010C945F010C945F010C945F0180
:100080000C945F010C945F010C945F010C945F0170
:100090000C945F010C945F010C945F010C945F0160
:1000A0000C945F010C945F010C945F010C945F0150
:1000B0000C945F010C945F010C945F010C945F0140
:1000C0000C945F010C945F010C945F010C945F0130
:1000D0000C945F010C945F010C945F010C945F0120
:1000E0000C945F010C9463020C942C030C94300369
:1000F0000C9403030C9410030C9428030C941E031B
:100100000C9480010C94D0010C94BC010C94E4027A
:100110000C941A030C943A030C94FB020C941403F1
:100120000C9416020C9450050C9440030C94360366
:100130000C94FF020C94DE010C94AD010C9441036D
:100140000C9422030C940A030C9407030C94E90208
:100150000C94A00400000A0B02090C0D0E08070302
:10016000040100000000000000000000000000008A
:10017000000000000000000000000000000000007F
:10018000121110000000000000000000000000003C
:100190000000000000000000000000002200250018
:1001A00028002B002E003100340002010000050160
:1001B00008010B0100002100240027002A002D0067
:1001C0003000330001010000040107010A010505A8
:1001D0000505070508080808020202020A0A0808BD
:1001E00004040404010101010101010103030303EB
:1001F00003030303040707070C0C0C0C0C0C0C0C7A
:100200000202020206060606060606060B0B0B0B8A
:100210000B0B0B0B010210202008081020401020AF
:1002200040800201020108040201010204081020BA
:1002300040808040201008040201800402018040B8
:100240002010080402010804020101020408102021
:1002500040800102040810204080500511241FBE78
:10026000CFEFD1E2DEBFCDBF00E00CBF12E0A0E0D7
:10027000B2E0E8EAFDE000E00BBF02C007900D929B
:10028000AC37B107D9F723E0ACE7B2E001C01D926B
:10029000A136B207E1F711E0CEE2D1E000E006C0FE
:1002A00021970109802FFE010E94C106CD32D1079E
:1002B00080E00807A9F70E949A050C94D2060C94D6
:1002C000000090E0FC01EC5EFD4F249182539E4FB4
:1002D000FC018491882399F090E0880F991FFC011C
:1002E000EC54FE4FA591B491FC01E656FE4F85916A
:1002F00094918FB7F894EC91E22BEC938FBF089513
:10030000AF92BF92CF92DF92EF92FF920F931F9323
:10031000CF93DF936C017B018B01040F151FEB0161
:100320005E01AE18BF08C017D10759F06991D60118
:10033000ED91FC910190F081E02DC6011995892B7A
:1003400079F7C501DF91CF911F910F91FF90EF9049
:10035000DF90CF90BF90AF900895FC01538D448DF6
:10036000252F30E0842F90E0821B930B541710F060
:10037000CF96089501970895FC01918D828D98176D
:1003800061F0A28DAE0FBF2FB11D5D968C91928D45
:100390009F5F9F73928F90E008958FEF9FEF089576
:1003A000FC01918D828D981731F0828DE80FF11D3F
:1003B000858D90E008958FEF9FEF0895FC01918D5A
:1003C000228D892F90E0805C9F4F821B91098F7353
:1003D000992708958CEA92E00E94DE0121E0892BA2
:1003E00009F420E0822F0895FC01A48DA80FB92FF5
:1003F000B11DA35ABF4F2C91848D90E001968F734D
:100400009927848FA689B7892C93A089B1898C916B
:10041000837080648C93938D848D981306C00288BA
:10042000F389E02D80818F7D80830895EF92FF9284
:100430000F931F93CF93DF93EC0181E0888F9B8D07
:100440008C8D98131AC0E889F989808185FF15C0C1
:100450009FB7F894EE89FF896083E889F9898081E4
:100460008370806480839FBF81E090E0DF91CF91B3
:100470001F910F91FF90EF900895F62E0B8D10E0D5
:100480000F5F1F4F0F731127E02E8C8D8E110CC044
:100490000FB607FCFACFE889F989808185FFF5CF8F
:1004A000CE010E94F401F1CFEB8DEC0FFD2FF11D79
:1004B000E35AFF4FF0829FB7F8940B8FEA89FB89CC
:1004C00080818062CFCFCF93DF93EC01888D88232A
:1004D000B9F0AA89BB89E889F9898C9185FD03C0A7
:1004E000808186FD0DC00FB607FCF7CF8C9185FF8C
:1004F000F2CF808185FFEDCFCE010E94F401E9CFDC
:10050000DF91CF91089580E090E0892B29F00E943F
:10051000EA0181110E94000080E090E0892B49F0FF
:1005200080E090E0892B29F00E94000081110E9458
:10053000000080E090E0892B49F080E090E0892B7A
:1005400029F00E94000081110E94000080E090E0EC
:10055000892B49F080E090E0892B29F00E9400006F
:1005600081110C9400000895282F30E0F901EC5A15
:10057000FE4F9491F901EC5EFD4F449122533E4FA2
:10058000F9012491222309F435C0992311F19150E6
:100590009231F8F4E92FF0E08827EE52FD4F8F4FAB
:1005A0000C94C10603030703E402FB02FF02E90205
:1005B0000A03100314031A031E03220328032C0347
:1005C000E902300336033A03809180008F778093ED
:1005D0008000E22FF0E0EE0FFF1FE656FE4FA591E0
:1005E000B4918FB7F894EC91611148C040954E23B7
:1005F0004C938FBF0895809180008F7DE8CF8091CC
:100600008000877FE4CF84B58F7784BDE2CF84B547
:100610008F7DFBCF8091B0008F778093B000D9CFD2
:100620008091B0008F7DF9CF809190008F7780937B
:100630009000CFCF809190008F7DF9CF8091900076
:10064000877FF5CF8091A0008F778093A000C1CFE6
:100650008091A0008F7DF9CF8091A000877FF5CF9A
:10066000809120018F7780932001B3CF809120016A
:100670008F7DF9CF80912001877FF5CF4E2BB8CFAA
:10068000089590E080E00895FC0101900020E9F7D2
:100690003197AF01481B590BBC0189E493E00C94DE
:1006A0008001CF93DF93EC0160E08E810E94B40261
:1006B00061E08E810E94B40260E08E810E94B402EB
:1006C0008BE891E00197F1F7DF91CF910895CF92F8
:1006D000DF92EF92FF920F931F93CF93DF936C0102
:1006E0007C0187E0E80EF11CD0E0C0E0062F10E0AE
:1006F000B8010C2E02C0759567950A94E2F76170F7
:10070000F70181917F010E94B4022196C430D10586
:1007100079F7C601DF91CF911F910F91FF90EF9074
:10072000DF90CF900C945103CF92DF92EF92FF9223
:100730000F931F93CF93DF93EC01F62E642F8C81E0
:100740000E94B4028D818F3F19F060E00E94B402D4
:100750000F2D10E08F8584FF25C06E0187E0C80E45
:10076000D11CF12CE12CB8010E2C02C075956795B7
:100770000A94E2F76170F60181916F010E94B40260
:10078000FFEFEF1AFF0A88E0E816F10461F7CE01E7
:10079000DF91CF911F910F91FF90EF90DF90CF905D
:1007A0000C945103B80184E0759567958A95E1F73B
:1007B000CE010E9467036F2DCE01DF91CF911F9173
:1007C0000F91FF90EF90DF90CF900C94670340E083
:1007D000682F89E493E00C94940381E00E94E7037E
:1007E0008BE39FE10197F1F70895CF93DF93823078
:1007F00029F49091580398609093580380935C0378
:1008000010925D0380E480935E0380E180935F0338
:1008100080E58093600380914D030E946101809187
:100820004E038F3F11F00E94610180914F030E949F
:100830006101C9E4D3E09E012954334080915803FB
:1008400084FD0AC084E090E02196281739073CF423
:100850008E810E946101EFCF88E090E0F5CF8BE3BD
:100860009DE00197F1F760E080914D030E94B40292
:1008700060E080914F030E94B40280914E038F3F4D
:1008800019F060E00E94B4028091580384FD34C0E6
:1008900063E089E493E00E946703CBE4D6E4CE01F1
:1008A0000197F1F763E089E493E00E9467032197E1
:1008B000F1F763E089E493E00E94670383E592E047
:1008C0000197F1F762E089E493E00E946703809169
:1008D000580380620E94E70384E0809359038CE010
:1008E0000E94E7030E94ED0382E080935A0386E0B2
:1008F000DF91CF910C94E70380620E94E7038BE4C1
:1009000096E40197F1F78091580380620E94E70313
:1009100083E592E00197F1F78091580380620E948D
:10092000E703D5CF90915C03891710F08FEF890F03
:10093000E82FF0E0E75BFC4F848980680C94E703C4
:1009400041E00E94940381E090E008951F920F928D
:100950000FB60F9211240BB60F922F933F934F9324
:100960005F936F937F938F939F93AF93BF93EF9317
:10097000FF938CEA92E00E94F401FF91EF91BF9106
:10098000AF919F918F917F916F915F914F913F9127
:100990002F910F900BBE0F900FBE0F901F901895C8
:1009A0001F920F920FB60F9211240BB60F922F9336
:1009B0008F939F93EF93FF93E091BC02F091BD0260
:1009C0008081E091C202F091C30282FD1DC090813E
:1009D0008091C5028F5F8F732091C602821741F00C
:1009E000E091C502F0E0E455FD4F958F8093C5027C
:1009F000FF91EF919F918F912F910F900BBE0F90D0
:100A00000FBE0F901F9018958081F2CF1F920F920A
:100A10000FB60F9211242F933F938F939F93AF9311
:100A2000BF938091810290918202A0918302B09144
:100A300084023091800223E0230F2D3758F5019670
:100A4000A11DB11D209380028093810290938202A8
:100A5000A0938302B093840280917C0290917D02E6
:100A6000A0917E02B0917F020196A11DB11D8093DD
:100A70007C0290937D02A0937E02B0937F02BF918F
:100A8000AF919F918F913F912F910F900FBE0F903B
:100A90001F90189526E8230F0296A11DB11DD2CFF5
:100AA000ECEAF2E01382128288EE93E0A0E0B0E07C
:100AB00084839583A683B7838CE092E091838083BF
:100AC00085EC90E09587848784EC90E09787868713
:100AD00080EC90E0918B808B81EC90E0938B828B0B
:100AE00082EC90E0958B848B86EC90E0978B868BE4
:100AF000118E128E138E148EE9E4F3E013821282AB
:100B00008EE192E0918380838DE084838FEF8583F3
:100B10008CE0868388E0878389E080878AE081870C
:100B20008BE082871386148615861686178681E0E9
:100B30000C94F503789484B5826084BD84B581609B
:100B400084BD85B5826085BD85B5816085BD809198
:100B50006E00816080936E00109281008091810010
:100B60008260809381008091810081608093810008
:100B7000809180008160809380008091B1008460CA
:100B80008093B1008091B00081608093B00080912B
:100B900091008260809391008091910081608093A8
:100BA0009100809190008160809390008091A100DD
:100BB00082608093A1008091A10081608093A10058
:100BC0008091A00081608093A000809121018260CB
:100BD0008093210180912101816080932101809186
:100BE000200181608093200180917A00846080934D
:100BF0007A0080917A00826080937A0080917A00F6
:100C0000816080937A0080917A00806880937A0076
:100C10001092C10082E00E94F5030E94ED0380E083
:100C20000E94920486E292E00E94440381E00E94C6
:100C30009204E091BC02F091BD0282E08083E091D9
:100C4000B802F091B9021082E091BA02F091BB02B1
:100C50008FEC80831092C402E091C002F091C10237
:100C600086E08083E091BE02F091BF0280818061C6
:100C70008083E091BE02F091BF0280818860808312
:100C8000E091BE02F091BF02808180688083E09194
:100C9000BE02F091BF0280818F7D80838CEA92E05A
:100CA0000E94DE0118161906FCF48CEA92E00E94FC
:100CB000BC01C82F682F8CEA92E00E941602809136
:100CC000AB02CA32A1F5811112C081E08093AB0260
:100CD0000E94ED0380E00E94920487E392E00E946C
:100CE000440381E00E9492040E948302D7CF0E94B5
:100CF000ED0380E00E94920464E072E08AE992E0F1
:100D00000E94C906892B29F088E492E00E944403DE
:100D1000EBCF60E072E089E892E00E94C906892B7F
:100D200019F089E592E0F2CF8AE692E0EFCF41E058
:100D30006C2F811114C089E493E00E949403809188
:100D40008702909188029C012F5F3F4F3093880269
:100D50002093870286569D4FFC01C083C5CF89E44E
:100D600093E00E94940380918502909186029C01F9
:100D70002F5F3F4F309386022093850287579D4F08
:100D8000EBCFEE0FFF1F881F8BBF0790F691E02D72
:100D90001994FB01DC018D91019080190110D9F3A8
:080DA000990B0895F894FFCFB0
:100DA800343536003132330000000000160280016D
:100DB800AD016302DE01BC01D00100000000A00407
:100DC800800141034003456E746572207573657236
:100DD8006E616D65203A00456E74657220706173AE
:100DE80073776F7264203A00757365726E616D6512
:100DF80020696E76616C6964002077726F6E672077
:100E080070617373776F72642000656E7465722009
:0C0E18007375636365737366756C00008E
:00000001FF
