:100000000C9441010C9472010C9472010C947201D5
:100010000C9472010C9472010C9472010C94720194
:100020000C9472010C9472010C9472010C94720184
:100030000C9472010C9472010C9472010C94720174
:100040000C9472010C9472010C9472010C94720164
:100050000C9472010C9472010C9472010C940A06B7
:100060000C9472010C94D4050C94AA050C947201A2
:100070000C9472010C9472010C9472010C94720134
:100080000C9472010C9472010C9472010C94720124
:100090000C9472010C9472010C9472010C94720114
:1000A0000C9472010C9472010C9472010C94720104
:1000B0000C9472010C9472010C9472010C947201F4
:1000C0000C9472010C9472010C9472010C947201E4
:1000D0000C9472010C9472010C9472010C947201D4
:1000E0000C9472010C946B030C9486030C947403AF
:1000F0000C94CB030C9465020C94FC030C94070243
:100100000C9441040C948C030C9454060C949E03A0
:100110000C9434020C943C040C9443020C94EA02B8
:100120000C9482030C9440040C9459030C945702D1
:100130000C947E030C9499030C9463030C94940325
:100140000C94A4050C9490030C945F030C946E0320
:100150000C949D020C9467030C949A030C947803FE
:1001600000002100240027002A002D003000330069
:1001700001010000040107010A010000220025001E
:1001800028002B002E003100340002010000050180
:1001900008010B01000020002300260029002C008C
:1001A0002F003200000100000301060109010505CE
:1001B0000505070508080808020202020A0A0808DD
:1001C000040404040101010101010101030303030B
:1001D00003030303040707070C0C0C0C0C0C0C0C9A
:1001E0000202020206060606060606060B0B0B0BAB
:1001F0000B0B0B0B010210202008081020401020D0
:1002000040800201020108040201010204081020DA
:1002100040808040201008040201800402018040D8
:100220002010080402010804020101020408102041
:100230004080010204081020408000000A0B0209DF
:100240000C0D0E0807030401000000000000000070
:10025000000000000000000000000000000000009E
:10026000000000000000121110000000000000005B
:10027000000000000000000000000000000000007E
:10028000540611241FBECFEFD1E2DEBFCDBF00E088
:100290000CBF12E0A0E0B2E0ECEEF2E100E00BBF38
:1002A00002C007900D92A839B107D9F723E0A8E959
:1002B000B2E001C01D92AC3EB207E1F711E0C1E42B
:1002C000D1E000E006C021970109802FFE010E94C5
:1002D0006309C034D10780E00807A9F70E940E0720
:1002E0000C9474090C94000096E0899FD0011124AD
:1002F000AB59BC4F90967C936E935F9791E091962B
:100300009C939197E091D203F091D3039091D10304
:10031000992339F0309751F0811108C08091810301
:100320001994309719F05C968C91FACF0895CF927A
:10033000DF92EF92FF920F931F9396E0899FF00157
:100340001124EB59FC4F11A2278D30A1213031052A
:1003500051F178F02230310509F451C023303105D4
:1003600009F452C01F910F91FF90EF90DF90CF9052
:1003700008956623B9F361E070E00E9474012FB71D
:10038000F8948091C4029091C502A091C602B091E8
:10039000C7022FBF8093BD039093BE03A093BF03FA
:1003A000B093C003DFCF9FB7F894C090C402D09041
:1003B000C502E090C602F090C7029FBF0091BD0346
:1003C0001091BE032091BF033091C003C01AD10A1F
:1003D000E20AF30A0091CF031091D00330E020E04D
:1003E0000C151D052E053F0550F462E070E01F91CD
:1003F0000F91FF90EF90DF90CF900C9474016111FA
:10040000B1CF63E070E0F3CF70E060E0F0CFAF9287
:10041000BF92CF92DF92EF92FF920F931F93CF93F1
:10042000DF936C017B018B01040F151FEB015E0153
:10043000AE18BF08C017D10759F06991D601ED91E8
:10044000FC910190F081E02DC6011995892B79F777
:10045000C501DF91CF911F910F91FF90EF90DF9039
:10046000CF90BF90AF900895FC01538D448D252F00
:1004700030E0842F90E0821B930B541710F0CF963E
:10048000089501970895FC01918D828D981761F070
:10049000A28DAE0FBF2FB11D5D968C91928D9F5F87
:1004A0009F73928F90E008958FEF9FEF0895FC0166
:1004B000918D828D981731F0828DE80FF11D858D19
:1004C00090E008958FEF9FEF0895FC01918D228DAC
:1004D000892F90E0805C9F4F821B91098F73992731
:1004E000089588EC92E00E94650221E0892B09F4CE
:1004F00020E0822F0895FC01A48DA80FB92FB11D13
:10050000A35ABF4F2C91848D90E001968F73992749
:10051000848FA689B7892C93A089B1898C91837027
:1005200080648C93938D848D981306C00288F38920
:10053000E02D80818F7D80830895EF92FF920F934D
:100540001F93CF93DF93EC0181E0888F9B8D8C8D7F
:1005500098131AC0E889F989808185FF15C09FB773
:10056000F894EE89FF896083E889F9898081837036
:10057000806480839FBF81E090E0DF91CF911F91E5
:100580000F91FF90EF900895F62E0B8D10E00F5F06
:100590001F4F0F731127E02E8C8D8E110CC00FB6DC
:1005A00007FCFACFE889F989808185FFF5CFCE0174
:1005B0000E947B02F1CFEB8DEC0FFD2FF11DE35A72
:1005C000FF4FF0829FB7F8940B8FEA89FB898081F7
:1005D0008062CFCFCF93DF93EC01888D8823B9F071
:1005E000AA89BB89E889F9898C9185FD03C080813E
:1005F00086FD0DC00FB607FCF7CF8C9185FFF2CFBB
:10060000808185FFEDCFCE010E947B02E9CFDF9193
:10061000CF91089580E090E0892B29F00E9471022B
:1006200081110E94000080E090E0892B49F080E079
:1006300090E0892B29F00E94000081110E940000A7
:1006400080E090E0892B49F080E090E0892B29F050
:100650000E94000081110E94000080E090E0892B40
:1006600049F080E090E0892B29F00E940000811180
:100670000C94000008958150823108F05AC0E82F90
:10068000F0E08827E95BFC4F8F4F0C946309670308
:100690006B0359035F03630399036E0374037803C9
:1006A0007E03820386038C039003990394039A03C9
:1006B0009E03809180008F778093800008958091C1
:1006C00080008F7DF9CF80918000877FF5CF84B542
:1006D0008F7784BD089584B58F7DFBCF8091B00066
:1006E0008F778093B00008958091B0008F7DF9CF0F
:1006F000809190008F778093900008958091900072
:100700008F7DF9CF80919000877FF5CF8091A000F9
:100710008F778093A00008958091A0008F7DF9CFFE
:100720008091A000877FF5CF809120018F77809303
:1007300020010895809120018F7DF9CF80912001C3
:10074000877FF5CFCF93DF93282F30E0F901E65C68
:10075000FD4F8491F901EC50FE4FD491F901E2551F
:10076000FE4FC491CC23A1F081110E943B03EC2FDA
:10077000F0E0EE0FFF1FEC56FE4FA591B491EC9107
:10078000ED2381E090E009F480E0DF91CF910895BE
:1007900080E090E0FACF862F0C94A2031F93CF93B2
:1007A000DF93282F30E0F901E65CFD4F8491F901D9
:1007B000EC50FE4FD491F901E255FE4FC491CC2389
:1007C000A9F0162F81110E943B03EC2FF0E0EE0FF1
:1007D000FF1FE658FE4FA591B4918FB7F894EC91A6
:1007E000111108C0D095DE23DC938FBFDF91CF912C
:1007F0001F910895DE2BF8CF862F642F0C94CE0323
:10080000CF93DF9390E0FC01EC50FE4F2491825592
:100810009E4FFC0184918823C9F090E0880F991FB6
:10082000FC01E05AFE4FA591B491FC01E658FE4F41
:10083000C591D49161110DC09FB7F8948C9120950A
:1008400082238C938881282328839FBFDF91CF91B7
:100850000895623051F49FB7F8943C91822F8095AF
:1008600083238C93E8812E2BEFCF8FB7F894EC91F4
:100870002E2B2C938FBFEACF862F642F0C9400046D
:10088000089590E080E00895FC0101900020E9F7D0
:100890003197AF01481B590BBC0184ED93E00C94D8
:1008A0000702CF93DF93EC0160E08E810E94CE03BC
:1008B00061E08E810E94CE0360E08E810E94CE03B3
:1008C0008BE891E00197F1F7DF91CF910895CF92F6
:1008D000DF92EF92FF920F931F93CF93DF936C0100
:1008E0007C0187E0E80EF11CD0E0C0E0062F10E0AC
:1008F000B8010C2E02C0759567950A94E2F76170F5
:10090000F70181917F010E94CE032196C430D10569
:1009100079F7C601DF91CF911F910F91FF90EF9072
:10092000DF90CF900C945104CF92DF92EF92FF9220
:100930000F931F93CF93DF93EC01F62E642F8C81DE
:100940000E94CE038D818F3F19F060E00E94CE039C
:100950000F2D10E08F8584FF25C06E0187E0C80E43
:10096000D11CF12CE12CB8010E2C02C075956795B5
:100970000A94E2F76170F60181916F010E94CE0343
:10098000FFEFEF1AFF0A88E0E816F10461F7CE01E5
:10099000DF91CF911F910F91FF90EF90DF90CF905B
:1009A0000C945104B80184E0759567958A95E1F738
:1009B000CE010E9467046F2DCE01DF91CF911F9170
:1009C0000F91FF90EF90DF90CF900C94670440E080
:1009D000682F84ED93E00C94940481E00E94E70476
:1009E0008BE39FE10197F1F70895CF93DF93823076
:1009F00029F49091E30398609093E3038093E703D5
:100A00001092E80380E48093E90380E18093EA0395
:100A100080E58093EB0361E08091D8030E9400049D
:100A20008091D9038F3F19F061E00E94000461E0DA
:100A30008091DA030E940004C4EDD3E09E01245D9E
:100A400033408091E30384FD0BC084E090E0219665
:100A50002817390744F461E08E810E940004EECF2C
:100A600088E090E0F4CF8BE39DE00197F1F760E040
:100A70008091D8030E94CE0360E08091DA030E9447
:100A8000CE038091D9038F3F19F060E00E94CE031E
:100A90008091E30384FD34C063E084ED93E00E9421
:100AA0006704CBE4D6E4CE010197F1F763E084ED6F
:100AB00093E00E9467042197F1F763E084ED93E0EF
:100AC0000E94670483E592E00197F1F762E084ED0C
:100AD00093E00E9467048091E30380620E94E70430
:100AE00084E08093E4038CE00E94E7040E94ED041C
:100AF00082E08093E50386E0DF91CF910C94E704D8
:100B000080620E94E7048BE496E40197F1F78091FC
:100B1000E30380620E94E70483E592E00197F1F726
:100B20008091E30380620E94E704D5CF9091E703B0
:100B3000891710F08FEF890FE82FF0E0EC52FC4F8F
:100B4000848980680C94E70441E00E94940481E069
:100B500090E008951F920F920FB60F9211240BB6DA
:100B60000F922F933F934F935F936F937F938F9346
:100B70009F93AF93BF93EF93FF9388EC92E00E9413
:100B80007B02FF91EF91BF91AF919F918F917F91E8
:100B90006F915F914F913F912F910F900BBE0F90EE
:100BA0000FBE0F901F9018951F920F920FB60F92C5
:100BB00011240BB60F922F938F939F93EF93FF9374
:100BC000E091D802F091D9028081E091DE02F091AB
:100BD000DF0282FD1DC090818091E1028F5F8F73E3
:100BE0002091E202821741F0E091E102F0E0E85347
:100BF000FD4F958F8093E102FF91EF919F918F912F
:100C00002F910F900BBE0F900FBE0F901F90189555
:100C10008081F2CF1F920F920FB60F9211242F9363
:100C20003F938F939F93AF93BF938091C402909112
:100C3000C502A091C602B091C70230919C0223E088
:100C4000230F2D3758F50196A11DB11D20939C024D
:100C50008093C4029093C502A093C602B093C702CA
:100C60008091980290919902A0919A02B0919B0272
:100C70000196A11DB11D8093980290939902A093B3
:100C80009A02B0939B02BF91AF919F918F913F9138
:100C90002F910F900FBE0F901F90189526E8230FED
:100CA0000296A11DB11DD2CF1092CB021092CA02A2
:100CB00088EE93E0A0E0B0E08093CC029093CD0268
:100CC000A093CE02B093CF028FE192E09093C9023D
:100CD0008093C80285EC90E09093D5028093D40273
:100CE00084EC90E09093D7028093D60280EC90E061
:100CF0009093D9028093D80281EC90E09093DB022C
:100D00008093DA0282EC90E09093DD028093DC0223
:100D100086EC90E09093DF028093DE021092E10275
:100D20001092E2021092E3021092E4021092D703B2
:100D30001092D6038BE392E09093D5038093D40373
:100D40008DE08093D8038FEF8093D9038CE080935C
:100D5000DA0388E08093DB0389E08093DC038AE098
:100D60008093DD038BE08093DE031092DF0310920B
:100D7000E0031092E1031092E2031092E30381E09A
:100D80000E94F5041092670310926B0310926A039D
:100D900010926C0381E392E0909366038093650365
:100DA000E1E8F3E01082148213821582369683E024
:100DB000ED3BF807B9F78BE092E09093C80380937E
:100DC000C70388E092E09093CA038093C90384E04C
:100DD0008093CB0383E08093CC038FE092E09093E9
:100DE000C6038093C5038AE090E09093CE0380937E
:100DF000CD0384EF91E09093D0038093CF031092C2
:100E0000D3031092D2031092C1031092C203109226
:100E1000C3031092C4031092D1030895789484B54B
:100E2000826084BD84B5816084BD85B5826085BDE6
:100E300085B5816085BD80916E00816080936E0074
:100E40001092810080918100826080938100809166
:100E50008100816080938100809180008160809317
:100E600080008091B10084608093B1008091B000D7
:100E700081608093B00080919100826080939100A6
:100E800080919100816080939100809190008160B9
:100E9000809390008091A10082608093A100809156
:100EA000A10081608093A1008091A0008160809367
:100EB000A000809121018260809321018091210115
:100EC00081608093210180912001816080932001C5
:100ED00080917A00846080937A0080917A008260A9
:100EE00080937A0080917A00816080937A0080916B
:100EF0007A00806880937A001092C10082E00E949C
:100F0000F5040E94ED0480E00E94960583E492E0DF
:100F10000E94440481E00E949605E091D802F0917D
:100F2000D90282E08083E091D402F091D502108250
:100F3000E091D602F091D7028FEC80831092E0020C
:100F4000E091DC02F091DD0286E08083E091DA023C
:100F5000F091DB02808180618083E091DA02F09180
:100F6000DB02808188608083E091DA02F091DB020D
:100F7000808180688083E091DA02F091DB028081D9
:100F80008F7D808333243394412C512C3201439440
:100F9000CC24CA94DC2C56E0252E3092D1038FB796
:100FA000F8944091C4025091C5026091C6027091BC
:100FB000C7028FBF8091C1039091C203A091C30368
:100FC000B091C403481B590B6A0B7B0B8091CD0376
:100FD0009091CE03B0E0A0E084179507A607B7076D
:100FE00008F00DC1C0E08091CB03C81760F4E09118
:100FF000C703F091C803EC0FF11D62E080810E94ED
:101000000004CF5FF0CF912C8091CC03981608F0AC
:101010005FC0092D10E0E091C903F091CA03E00F11
:10102000F11F61E080810E940004E091C903F0910A
:10103000CA03E00FF11F60E080810E94CE03D3015C
:10104000C201092C04C0880F991FAA1FBB1F0A9454
:10105000D2F75C017C01E094F094812C8091CB0369
:101060008816F8F4C82DD0E0E091C703F091C803CA
:10107000EC0FFD1F80810E94A2032496CC0FDD1F80
:10108000CB59DC4F892B41F4888199818A299B298E
:10109000998388838394E2CF888199818E219F21CF
:1010A000F7CFE091C903F091CA03E00FF11F61E0AF
:1010B00080810E94CE038091C9039091CA03080FDA
:1010C000191F60E0F80180810E94000493949CCF76
:1010D000C5E6D3E0FE01878D90A1892B21F4148E03
:1010E000D68EC58E11A2369683E0E13AF80799F7BD
:1010F00010E08091CB03181708F052C000E0E12EF9
:10110000F12CEE0CFF1CF701E359FC4F7F012091FD
:10111000CC03021708F042C0F70160817181002EF4
:1011200002C0769567950A94E2F7129F9001112408
:10113000200F311DE5E6F3E080E0458D568D241744
:10114000350709F4BEC08F5F36968A30B1F760FF6D
:1011500023C0E5E6F3E090E080E0448D411117C044
:10116000E091C503F091C603E20FF31F6081289E52
:10117000F001299EF00D1124EB59FC4F648F368F3E
:10118000258F10A2178E61E00E94970105C001967D
:1011900036968A30910509F70F5FB9CF1F5FA9CF47
:1011A00080E099A19111892F2696F3E0C13ADF07DB
:1011B000C1F79FB7F8944091C4025091C502609165
:1011C000C6027091C7029FBF4093C1035093C203F0
:1011D0006093C3037093C403882389F080918603CE
:1011E000882369F08091840390918503019739F4F5
:1011F000C0918103C11106C00E940A03CECE109295
:10120000D103FACF8091C302CA3289F581110FC090
:101210003092C3020E94ED0480E00E94960584E5AE
:1012200092E00E94440481E00E949605E5CF0E946E
:10123000ED0480E00E94960564E072E082EB92E0AB
:101240000E946B09892B29F085E692E00E944404F4
:10125000D3CF60E072E081EA92E00E946B09892BB3
:1012600019F086E792E0F2CF87E892E0EFCF41E015
:101270006C2F811114C084ED93E00E94940480913E
:101280009F029091A0029C012F5F3F4F3093A002DC
:1012900020939F028E549D4FFC01C083ADCF84EDFF
:1012A00093E00E94940480919D0290919E029C0183
:1012B0002F5F3F4F30939E0220939D028F559D4F8D
:1012C000EBCF617061CFEE0FFF1F881F8BBF0790C0
:1012D000F691E02D1994FB01DC018D9101908019AC
:0C12E0000110D9F3990B0895F894FFCF8A
:1012EC00343536003132330017191B1F21232531B9
:1012FC0032333435363738392A3023000000009D1C
:10130C000207023402EA026502430257020000009F
:10131C00003C04FC03CB0300000000A405070241C1
:10132C00044004456E74657220757365726E616D50
:10133C0065203A00456E7465722070617373776F27
:10134C007264203A00757365726E616D6520696E0A
:10135C0076616C6964002077726F6E6720706173C0
:10136C0073776F72642000656E7465722073756399
:08137C006365737366756C0074
:00000001FF
